:020000040040BA
:10000000F0244020F5054000F1054000F1054000D6
:10001000F1054000F1054000F1054000000000003E
:10002000000000000000000000000000F10540009A
:10003000F105400000000000F1054000F10540001E
:10004000F1054000F1054000F1054000F1054000D8
:10005000F1054000F1054000F1054000F1054000C8
:10006000F105400000000000190440002D0440008C
:1000700041044000F1054000F1054000F105400059
:100080005504400069044000F1054000F1054000BE
:10009000F1054000F1054000F1054000F105400088
:1000A000F1054000F1054000F1054000F105400078
:1000B000F1054000F1054000F1054000F105400068
:1000C000F1054000F1054000F1054000F105400058
:1000D00000000000F105400000000000F1054000B4
:1000E000F1054000F1054000F1054000F105400038
:1000F000F1054000F1054000F1054000F105400028
:10010000F1054000F1054000F1054000F105400017
:10011000F1054000000000000000000000000000A9
:10012000F1054000F1054000F1054000F1054000F7
:10013000F105400000000000F1054000F10540001D
:1001400010B5054C237833B9044B13B10448AFF311
:1001500000800123237010BD3C04402000000000FB
:10016000B80B40000C4B43B10C480D4910B5AFF330
:1001700000800C48036823B910BD0A48036833B9EE
:100180007047094B002BF7D0BDE810401847064BCD
:10019000002BF5D0184700BF00000000B80B40004E
:1001A00040044020B80B40000000000010B510488B
:1001B000104B98473E2100200F4B98470F4CA0470B
:1001C0000028FCD00E4B98470E4A0F4B9A620F4CFA
:1001D000A0470028FCD002200D4B984700200D4B73
:1001E00098470D4B98470248024B984710BD00BFF7
:1001F00000A3E111C9074000190540006D0540004A
:100200007D054000013F182000060E408D0540008E
:100210007D044000B5044000BD0640000163704706
:100220004163704721F00061B1F1405F05D1836BFC
:10023000134214BF012000207047C36BF8E74264EB
:10024000B1F1C05F3AD013D8B1F1006F25D0B1F150
:10025000805F0AD1036F13430367436F416F0B4005
:1002600023EA02034367426070470029FBD17047CD
:10027000B1F1205F21D009D8B1F1005FF3D1036F54
:1002800013430367436F13434367ECE7B1F1405FE8
:1002900013D0B1F1605F10D0E5E710B4016F046FC7
:1002A000D34321401C4619400167436F416F0B4007
:1002B0002340436742605DF8044B7047036F016F52
:1002C0000B4023EA02030367436F13434367CAE704
:1002D000416412F0010F0DD1016612F00A0F0BD02C
:1002E000016212F0020F09D112F0080F08D0C0F815
:1002F000841005E04166F0E74162F2E7C0F8801043
:1003000041610160704710B4019C41644CB90166C1
:100310004BB101654AB94163016101605DF8044B6D
:1003200070474166F4E74165F4E70163F4E70000D4
:1003300070B582B0054616461C46B1F1005F14D078
:100340000AD9B1F1405F24D0B1F1605F21D0B1F1A1
:10035000205F17D000201AE0B1F1805F05D0B1F125
:10036000C05F02D0B1F1006FF4D132462846114B84
:10037000984714F0010F02D12E66012007E06E6647
:10038000012004E01A4631460B4B9847012002B089
:1003900070BD04F001030093C4F38003B1F1605F0A
:1003A00014BF0022012231462846044CA0470120F8
:1003B000EDE700BF3F024000D102400007034000CC
:1003C000C06C7047806C70472DE9F0410446884648
:1003D0000E4B9847054620460D4B9847054013D0D5
:1003E0000C4C04F1600603E0B4420DD010345DB152
:1003F00020684045F8D161682942F5D0E368984704
:10040000636825EA0305EFE7BDE8F081C10340001A
:10041000C50340005804402008B50A210148024B9A
:10042000984708BD000E0E40C903400008B50B21D7
:100430000148024B984708BD00100E40C903400018
:1004400008B50C210148024B984708BD00120E4028
:10045000C903400008B510210148024B984708BD68
:1004600000140E40C903400008B511210148024B99
:10047000984708BD00160E40C9034000032811D05C
:10048000042812D002280CBF4FF480710021084AC2
:10049000136B23F440730B431363936E13F0080F35
:1004A000FBD070474FF44071F1E74FF40071EEE775
:1004B00000060E40174A136B23F0700318431063B5
:1004C000936E13F0080F0AD14FF4805311498A6ECE
:1004D00012F0080F03D1013BF9D1012070470D4AFA
:1004E000136B23F0030343F002031363936E13F0C3
:1004F000080F0AD14FF4805306498A6E12F0080F94
:1005000005D1013BF9D10120704700207047002040
:10051000704700BF00060E40A0B90E48036A0902EA
:1005200089B20D4A1A400D4B13431943016202462A
:10053000936E13F0010FFBD0064A116A084B0B4370
:100540001362704703490B6A064A1A40064B13436D
:100550000B62704700060E40FCFFC8FF0100370029
:1005600000003701FCFFC8FE02003701024B986E05
:1005700000F48030704700BF00060E404FF000527C
:10058000014B9A62704700BF00060E40024B986E06
:1005900000F00200704700BF00060E403F281ED842
:1005A0001F280CD8114B9A6901238340934318D01C
:1005B000012303FA00F00D4B18610020704720382A
:1005C0000A4BD3F808210123834093430BD0012326
:1005D00003FA00F0054BC3F800010020704701202A
:1005E0007047002070470020704700BF00060E4093
:1005F000FEE7000000B583B0254B264A9A4210D092
:10060000254B234A9A420CD2013B9B1A23F0030349
:10061000043313441F4951F8040B42F8040B9A4267
:10062000F9D11E4B1E4A9A420AD2013B9B1A23F073
:10063000030304331344002142F8041B9342FBD10B
:10064000184A194B23F07F039360EFF31083B3FA3A
:1006500083F35B09019372B6BFF35F8F0022134BE4
:100660001A700199124A136843F470031360BFF3C0
:100670004F8FBFF36F8F29B101220C4B1A70BFF35C
:100680005F8F62B60B4B98470B4B9847FEE700BF56
:1006900000004020B80B40003C044020EC04402007
:1006A0003C04402000ED00E0000040000A00402033
:1006B00088ED00E0210A40003D0840003B4B1B6BE9
:1006C00003F00303012B1DD083B1022B36D0374B2F
:1006D0001B6B03F07003702B5FD0344B1A6B3449E3
:1006E000C2F302120B68D3400B607047314B5B6959
:1006F00013F0800F14BF4FF400424FF4FA422C4B1A
:100700001A60E4E7294B1B6A13F0807F03D02A4A62
:10071000274B1A60DBE7294A254B1A60234B1B6ADB
:1007200003F07003102B05D0202BD0D1224A204B90
:100730001A60CCE7224A1E4B1A60C8E71B4B1B6AA3
:1007400013F0807F16D01C4A194B1A60174B1B6B95
:1007500003F00303022BBAD1144A916A926A144837
:10076000C1F30A41036801FB0333D2B2B3FBF2F3D6
:100770000360ACE7114A0E4B1A600C4B1B6A03F086
:100780007003102B05D0202BE0D10B4A084B1A60C8
:10079000DCE70B4A064B1A60D8E7054A136809499B
:1007A000A1FB03135B081360704700BF00060E40F7
:1007B0000C00402010180E40001BB70000093D003F
:1007C00000127A00ABAAAAAA124B984211D9124B76
:1007D000984213D9114B984214D9114B984215D90C
:1007E000104B984294BF4FF004220F4A0F4B1A60EF
:1007F00070474FF080620D4B1A6070470C4A0B4BEC
:100800001A6070470B4A094B1A6070470A4A074B37
:100810001A607047FF2C3101FF596202FF86930373
:10082000FFB3C404FFE0F50500050004000C0E4012
:100830000001000400020004000300042DE9F84F49
:100840006A4B98474FF40042694B5A600C20694C40
:10085000A0470A20A0470A20A0470C20A0470B2051
:10086000A0471020A0470C20A0470A20A047624EB6
:1008700000234FF480724FF0405130465F4CA04748
:100880005F4D01234FF400624FF020512846A047EE
:10089000002301224FF040512846A04700234FF08B
:1008A00080424FF040513046A047002304224FF0D1
:1008B00040515448A04701234FF080524FF020513F
:1008C0005148A04701234FF000424FF020513046DD
:1008D000A04701234FF400224FF020512846A047A3
:1008E000DFF838B1A846494C354614E001214046AE
:1008F000474B984729E04FF080412846444B9847A2
:100900003DE004213F48424B984754E04FF480714A
:1009100028463F4B98474FF080524FF020513A48BD
:10092000D8470028E2D10A264FF00109494640463F
:10093000384B98472046384FB84749464046344BD5
:1009400098472046B847013EF0D14FF000424FF0A3
:1009500020512846D8470028CDD10A264FF080499B
:10096000494628462B4B984720462B4FB8474946C7
:100970002846274B98472046B847013EF0D14FF410
:1009800000224FF020514046D8470028B9D10A260E
:10099000DFF870A04FF00409494650461D4B9847B8
:1009A00020461D4FB84749465046194B98472046A8
:1009B000B847013EF0D14FF400624FF0205140465D
:1009C000D8470028A2D10A264FF480794946284604
:1009D000104B98472046104FB847494628460C4BC5
:1009E00098472046B847013EF0D194E7AD0140005A
:1009F00050180E409D05400000120E40310340008B
:100A0000000E0E4000100E4000140E40252B4D002D
:100A10001D0240002102400001004020250240004C
:100A200070B50F4E0F4D761BB61018BF002405D0C1
:100A3000013455F8043B9847A642F9D10A4E0B4DB4
:100A4000761B00F0A7F8B61018BF002406D00134BA
:100A500055F8043B9847A642F9D170BD70BD00BF60
:100A6000A00B4000A00B4000A80B4000A00B4000D2
:100A7000024B13B1024800F005B8704700000000B7
:100A8000910A4000002301461A46184600F01EB89D
:100A900038B50A4C0A4D641BA4100AD004F18043F7
:100AA000013B05EB8305013C55F804399847002CC0
:100AB000F9D1BDE8384000F077B800BFB80B40006E
:100AC000B40B4000704700BF704700BF2DE9F843EA
:100AD0002C4D0646286898460F469146FFF7F2FFD0
:100AE000294B1C68D4F84831002B3ED05A681F2A85
:100AF0001CDC02F1010E76B103EB82010124C1F886
:100B00008890D3F8880194402043022EC3F88801CE
:100B1000C1F8088123D00232C3F804E0286843F802
:100B20002270FFF7D1FF0020BDE8F883174B0BB30D
:100B30004FF4C870AFF300800346D8B1D4F8482111
:100B40000260002141600A46C4F848014FF0010EDE
:100B5000C0F88811C0F88C11002EDCD0CCE7D3F897
:100B60008C110C43C3F88C41D5E704F5A673C4F887
:100B70004831BBE72868FFF7A7FF4FF0FF30BDE81B
:100B8000F88300BF38044020900B400000000000B4
:100B900010004020F8B500BFF8BC08BC9E46704766
:100BA000710A400065014000F8B500BFF8BC08BC00
:080BB0009E4670474101400020
:100BB800BFF35F8F0138FBD17047010000093D008A
:100BC80000000000FC02402064034020CC034020C9
:100BD800000000000000000000000000000000000D
:100BE80000000000000000000000000000000000FD
:100BF80000000000000000000000000000000000ED
:100C080000000000000000000000000000000000DC
:100C180000000000000000000000000000000000CC
:100C280000000000000000000000000000000000BC
:100C380000000000000000000000000000000000AC
:100C4800000000000000000000000000000000009C
:100C5800000000000000000000000000000000008C
:100C6800000000000000000001000000000000007B
:100C78000E33CDAB34126DE6ECDE05000B00000040
:100C8800000000000000000000000000000000005C
:100C9800000000000000000000000000000000004C
:100CA800000000000000000000000000000000003C
:100CB800000000000000000000000000000000002C
:0C0FE8000000000000000000C8044020D1
:04000005004005F5BD
:00000001FF
