S00E000053414D4537302E7372656389
S214400000F024402019044000150440001504400028
S2144000101504400015044000150440000000000090
S2144000200000000000000000000000001504400032
S2144000301504400000000000150440001504400070
S2144000401504400015044000150440001504400007
S21440005015044000150440001504400015044000F7
S21440006015044000000000009D024000AD02400024
S214400070BD02400015044000150440001504400031
S214400080CD024000DD02400015044000150440004B
S21440009015044000150440001504400015044000B7
S2144000A015044000150440001504400015044000A7
S2144000B01504400015044000150440001504400097
S2144000C01504400015044000150440001504400087
S2144000D00000000015044000000000001504400029
S2144000E01504400015044000150440001504400067
S2144000F01504400015044000150440001504400057
S2144001001504400015044000150440001504400046
S2144001101504400000000000000000000000000041
S2144001201504400015044000150440001504400026
S214400130150440000000000015044000150440006F
S21440014010B5054C237833B9044B13B10448AFF3CC
S21440015000800123237010BD3C04402000000000B6
S214400160080840000C4B43B10C480D4910B5AFF39E
S21440017000800C48036823B910BD0A48036833B9A9
S2144001807047094B002BF7D0BDE810401847064B88
S214400190002BF5D0184700BF0000000008084000BC
S2144001A040044020080840000000000070B5104899
S2144001B0104C114DA0473E210020104B9847A847B1
S2144001C00028FCD00E4B98470E4D0F4A0F4B9A62B4
S2144001D0A8470028FCD002200D4B98470D4B002026
S2144001E098470D4B984723460148BDE8704018474E
S2144001F000A3E11185054000A50340005D034000D3
S214400200B5034000C5034000013F182000060E40DD
S214400210ED02400019034000BD04400001637047F2
S2144002204163704710B5029C41643CB141663BB1A6
S21440023001653AB101630161016010BD0166F6E7F0
S2144002404165F6E74163F6E7C06C7047806C7047DF
S214400250F8B504460E4B0E46984705460D4B2046CD
S2144002609847054013D00C4C04F160072368B3420E
S21440027008D16168294205D0E368304698476368EC
S21440028025EA0305BC4202D01034002DEED1F8BD5D
S214400290490240004D024000580440200A210148CF
S2144002A0014B1847000E0E40510240000B210148FA
S2144002B0014B184700100E40510240000C210148E7
S2144002C0014B184700120E405102400010210148D1
S2144002D0014B184700140E405102400011210148BE
S2144002E0014B184700160E405102400002380228C3
S2144002F096BF074B002133F81010064B1A6B22F4BA
S21440030040720A431A639A6E1207FCD5704700BFC4
S214400310D807400000060E400F4B1A6B22F07002C2
S214400320104341F201021863996E08070CD51A6B08
S21440033022F0030242F002021A6341F20102996E71
S214400340090705D500207047013AEDD101207047D6
S214400350013AF4D1FAE700BF00060E400E4A136A8F
S21440036028B10E4919400E4B0B431362704723F4D5
S2144003705C13090223F0030389B243F45C1343F091
S21440038001030B431362936EDB07FCD5136A43F0FD
S2144003909B7343F48033E8E700060E40FCFFC8FE3C
S2144003A002003701024B986E00F48030704700BF61
S2144003B000060E404FF00052014B9A62704700BF55
S2144003C000060E40024B986E00F00200704700BFD9
S2144003D000060E403F2818D81F280D4A4FF001034C
S2144003E008D8916903FA00F030EA010300D01061A2
S2144003F0002070472038D2F8081103FA00F030EA9F
S2144004000103F5D0C2F80001F2E70120704700BFB3
S21440041000060E40FEE7000007B51D4B1D4A9A42F7
S2144004202AD11D4B00211D4A93422ED31C4B1D4AF8
S21440043023F07F039360EFF31083B3FA83F35B09F3
S214400440019372B6BFF35F8F174A002317491370A4
S21440045001980B6843F470030B60BFF34F8FBFF3F4
S2144004606F8F20B101231370BFF35F8F62B6104BBE
S2144004709847104B9847FEE7043A0F498B42D0D234
S21440048052F8040F43F8040BF8E743F8041BCBE795
S21440049000004020080840003C044020EC04402077
S2144004A00000400000ED00E00A00402088ED00E03B
S2144004B069064000250640003C0440202B4A2C4B51
S2144004C010B5116B01F00301012917D00CD3022996
S2144004D025D0116B01F07001702941D11A680321B3
S2144004E0B2FBF1F21A6010BD224949690C064CBFB6
S2144004F04FF400414FF4FA411960EAE7116AC80127
S21440050001D51D49F8E71D491960116A01F07001CF
S214400510102902D02029F4D0DBE71949ECE7116A0C
S214400520C90101D5144919E014491960116A01F04E
S2144005307001102911D02029F4D0116B01F003016D
S2144005400229C6D1946A1968906AC4F30A44C0B2B4
S21440055004FB0111B1FBF0F1CEE709491960ECE765
S214400560116B1A68C1F30211CA40BBE700060E4081
S2144005700C00402010180E40001BB70000093D003C
S21440058000127A000E4B98420E4B03D84FF0806212
S2144005901A6070470C4A904201D80C4AF8E70C4A59
S2144005A0904201D80B4AF3E70B4A904201D80B4AD7
S2144005B0EEE70B4A904294BF4FF00422094AE7E721
S2144005C0FF2C3101000C0E40FF596202000100046E
S2144005D0FF86930300020004FFB3C4040003000434
S2144005E0FFE0F5050005000413B5094B98474FF4A6
S2144005F00042084B0C20084C5A60084B9847002392
S2144006004FF4807106481A460093A04702B010BDCA
S214400610AD01400050180E4025024000D503400072
S21440062000120E400A4E0B4D08B50B4B98474FF440
S21440063080713046094B9847094C2846A0473046BB
S2144006404FF48071074B98472846A047EFE700BF16
S21440065000120E4049569A00E90540001D0240002F
S214400660010040202102400070B50F4E0F4D761B12
S214400670B61018BF002405D0013455F8043B9847FF
S214400680A642F9D10A4E0B4D761B00F0ABF8B610D9
S21440069018BF002406D0013455F8043B9847A642BC
S2144006A0F9D170BD70BD00BFF0074000F0074000B4
S2144006B0F8074000F0074000024B13B1024800F034
S2144006C005B8704700000000D906400000230146E8
S2144006D01A46184600F01EB838B50A4C0A4D641B38
S2144006E0A4100AD004F18043013B05EB8305013C8E
S2144006F055F804399847002CF9D1BDE8384000F049
S2144007007BB800BF0808400004084000704700BFA0
S214400710704700BF2DE9F8432C4D0646286898469A
S2144007200F469146FFF7F2FF294B1C68D4F8483134
S214400730002B3ED05A681F2A1CDC02F1010E76B10F
S21440074003EB82010124C1F88890D3F888019440D5
S2144007502043022EC3F88801C1F8088123D0023214
S214400760C3F804E0286843F82270FFF7D1FF002062
S214400770BDE8F883174B0BB34FF4C870AFF3008057
S2144007800346D8B1D4F848210260002141600A46A9
S214400790C4F848014FF0010EC0F88811C0F88C111B
S2144007A0002EDCD0CCE7D3F88C110C43C3F88C4138
S2144007B0D5E704F5A673C4F84831BBE72868FFF7C9
S2144007C0A7FF4FF0FF30BDE8F88300BF3804402055
S2144007D0E0074000000000000001000300020000A7
S2144007E010004020F8B500BFF8BC08BC9E467047D5
S2144007F0B906400065014000F8B500BFF8BC08BC2B
S20C4008009E467047410140008E
S214400808BFF35F8F0138FBD17047010000093D00F8
S21440081800000000FC02402064034020CC03402037
S214400828000000000000000000000000000000007B
S214400838000000000000000000000000000000006B
S214400848000000000000000000000000000000005B
S214400858000000000000000000000000000000004B
S214400868000000000000000000000000000000003B
S214400878000000000000000000000000000000002B
S214400888000000000000000000000000000000001B
S214400898000000000000000000000000000000000B
S2144008A800000000000000000000000000000000FB
S2144008B800000000000000000100000000000000EA
S2144008C80E33CDAB34126DE6ECDE05000B000000AF
S2144008D800000000000000000000000000000000CB
S2144008E800000000000000000000000000000000BB
S2144008F800000000000000000000000000000000AB
S214400908000000000000000000000000000000009A
S210400C380000000000000000C80440203F
S8044004199E
